{
  "_format": "hh-sol-artifact-1",
  "contractName": "PlayerCardNFT",
  "sourceName": "contracts/PlayerCardNFT.sol",
  "abi": [
    {
      "inputs": [
        {
          "internalType": "string",
          "name": "name_",
          "type": "string"
        },
        {
          "internalType": "string",
          "name": "symbol_",
          "type": "string"
        },
        {
          "internalType": "string",
          "name": "baseURI_",
          "type": "string"
        },
        {
          "internalType": "address",
          "name": "fanTokenAddress_",
          "type": "address"
        }
      ],
      "stateMutability": "nonpayable",
      "type": "constructor"
    },
    {
      "anonymous": false,
      "inputs": [
        {
          "indexed": true,
          "internalType": "address",
          "name": "owner",
          "type": "address"
        },
        {
          "indexed": true,
          "internalType": "address",
          "name": "approved",
          "type": "address"
        },
        {
          "indexed": true,
          "internalType": "uint256",
          "name": "tokenId",
          "type": "uint256"
        }
      ],
      "name": "Approval",
      "type": "event"
    },
    {
      "anonymous": false,
      "inputs": [
        {
          "indexed": true,
          "internalType": "address",
          "name": "owner",
          "type": "address"
        },
        {
          "indexed": true,
          "internalType": "address",
          "name": "operator",
          "type": "address"
        },
        {
          "indexed": false,
          "internalType": "bool",
          "name": "approved",
          "type": "bool"
        }
      ],
      "name": "ApprovalForAll",
      "type": "event"
    },
    {
      "anonymous": false,
      "inputs": [
        {
          "indexed": true,
          "internalType": "address",
          "name": "from",
          "type": "address"
        },
        {
          "indexed": true,
          "internalType": "address",
          "name": "to",
          "type": "address"
        },
        {
          "indexed": true,
          "internalType": "uint256",
          "name": "tokenId",
          "type": "uint256"
        }
      ],
      "name": "Transfer",
      "type": "event"
    },
    {
      "inputs": [],
      "name": "MAX_SUPPLY",
      "outputs": [
        {
          "internalType": "uint256",
          "name": "",
          "type": "uint256"
        }
      ],
      "stateMutability": "view",
      "type": "function"
    },
    {
      "inputs": [],
      "name": "admin",
      "outputs": [
        {
          "internalType": "address",
          "name": "",
          "type": "address"
        }
      ],
      "stateMutability": "view",
      "type": "function"
    },
    {
      "inputs": [
        {
          "internalType": "address",
          "name": "to",
          "type": "address"
        },
        {
          "internalType": "uint256",
          "name": "tokenId",
          "type": "uint256"
        }
      ],
      "name": "approve",
      "outputs": [],
      "stateMutability": "nonpayable",
      "type": "function"
    },
    {
      "inputs": [
        {
          "internalType": "address",
          "name": "owner",
          "type": "address"
        }
      ],
      "name": "balanceOf",
      "outputs": [
        {
          "internalType": "uint256",
          "name": "",
          "type": "uint256"
        }
      ],
      "stateMutability": "view",
      "type": "function"
    },
    {
      "inputs": [
        {
          "internalType": "uint256",
          "name": "tokenId",
          "type": "uint256"
        }
      ],
      "name": "getApproved",
      "outputs": [
        {
          "internalType": "address",
          "name": "",
          "type": "address"
        }
      ],
      "stateMutability": "view",
      "type": "function"
    },
    {
      "inputs": [
        {
          "internalType": "address",
          "name": "owner",
          "type": "address"
        },
        {
          "internalType": "address",
          "name": "operator",
          "type": "address"
        }
      ],
      "name": "isApprovedForAll",
      "outputs": [
        {
          "internalType": "bool",
          "name": "",
          "type": "bool"
        }
      ],
      "stateMutability": "view",
      "type": "function"
    },
    {
      "inputs": [],
      "name": "mint",
      "outputs": [],
      "stateMutability": "nonpayable",
      "type": "function"
    },
    {
      "inputs": [],
      "name": "name",
      "outputs": [
        {
          "internalType": "string",
          "name": "",
          "type": "string"
        }
      ],
      "stateMutability": "view",
      "type": "function"
    },
    {
      "inputs": [
        {
          "internalType": "uint256",
          "name": "tokenId",
          "type": "uint256"
        }
      ],
      "name": "ownerOf",
      "outputs": [
        {
          "internalType": "address",
          "name": "",
          "type": "address"
        }
      ],
      "stateMutability": "view",
      "type": "function"
    },
    {
      "inputs": [
        {
          "internalType": "address",
          "name": "operator",
          "type": "address"
        },
        {
          "internalType": "bool",
          "name": "approved",
          "type": "bool"
        }
      ],
      "name": "setApprovalForAll",
      "outputs": [],
      "stateMutability": "nonpayable",
      "type": "function"
    },
    {
      "inputs": [
        {
          "internalType": "string",
          "name": "_newBaseURI",
          "type": "string"
        }
      ],
      "name": "setBaseURI",
      "outputs": [],
      "stateMutability": "nonpayable",
      "type": "function"
    },
    {
      "inputs": [],
      "name": "symbol",
      "outputs": [
        {
          "internalType": "string",
          "name": "",
          "type": "string"
        }
      ],
      "stateMutability": "view",
      "type": "function"
    },
    {
      "inputs": [
        {
          "internalType": "uint256",
          "name": "tokenId",
          "type": "uint256"
        }
      ],
      "name": "tokenURI",
      "outputs": [
        {
          "internalType": "string",
          "name": "",
          "type": "string"
        }
      ],
      "stateMutability": "view",
      "type": "function"
    },
    {
      "inputs": [
        {
          "internalType": "address",
          "name": "from",
          "type": "address"
        },
        {
          "internalType": "address",
          "name": "to",
          "type": "address"
        },
        {
          "internalType": "uint256",
          "name": "tokenId",
          "type": "uint256"
        }
      ],
      "name": "transferFrom",
      "outputs": [],
      "stateMutability": "nonpayable",
      "type": "function"
    }
  ],
  "bytecode": "0x60806040523480156200001157600080fd5b5060405162002754380380620027548339818101604052810190620000379190620003c0565b83600590805190602001906200004f9291906200010e565b508260069080519060200190620000689291906200010e565b508160079080519060200190620000819291906200010e565b5080600960006101000a81548173ffffffffffffffffffffffffffffffffffffffff021916908373ffffffffffffffffffffffffffffffffffffffff16021790555033600860006101000a81548173ffffffffffffffffffffffffffffffffffffffff021916908373ffffffffffffffffffffffffffffffffffffffff16021790555050505050620004f4565b8280546200011c90620004be565b90600052602060002090601f0160209004810192826200014057600085556200018c565b82601f106200015b57805160ff19168380011785556200018c565b828001600101855582156200018c579182015b828111156200018b5782518255916020019190600101906200016e565b5b5090506200019b91906200019f565b5090565b5b80821115620001ba576000816000905550600101620001a0565b5090565b6000604051905090565b600080fd5b600080fd5b600080fd5b600080fd5b6000601f19601f8301169050919050565b7f4e487b7100000000000000000000000000000000000000000000000000000000600052604160045260246000fd5b6200022782620001dc565b810181811067ffffffffffffffff82111715620002495762000248620001ed565b5b80604052505050565b60006200025e620001be565b90506200026c82826200021c565b919050565b600067ffffffffffffffff8211156200028f576200028e620001ed565b5b6200029a82620001dc565b9050602081019050919050565b60005b83811015620002c7578082015181840152602081019050620002aa565b83811115620002d7576000848401525b50505050565b6000620002f4620002ee8462000271565b62000252565b905082815260208101848484011115620003135762000312620001d7565b5b62000320848285620002a7565b509392505050565b600082601f83011262000340576200033f620001d2565b5b815162000352848260208601620002dd565b91505092915050565b600073ffffffffffffffffffffffffffffffffffffffff82169050919050565b600062000388826200035b565b9050919050565b6200039a816200037b565b8114620003a657600080fd5b50565b600081519050620003ba816200038f565b92915050565b60008060008060808587031215620003dd57620003dc620001c8565b5b600085015167ffffffffffffffff811115620003fe57620003fd620001cd565b5b6200040c8782880162000328565b945050602085015167ffffffffffffffff81111562000430576200042f620001cd565b5b6200043e8782880162000328565b935050604085015167ffffffffffffffff811115620004625762000461620001cd565b5b620004708782880162000328565b92505060606200048387828801620003a9565b91505092959194509250565b7f4e487b7100000000000000000000000000000000000000000000000000000000600052602260045260246000fd5b60006002820490506001821680620004d757607f821691505b60208210811415620004ee57620004ed6200048f565b5b50919050565b61225080620005046000396000f3fe608060405234801561001057600080fd5b50600436106100ea5760003560e01c80636352211e1161008c578063a22cb46511610066578063a22cb46514610237578063c87b56dd14610253578063e985e9c514610283578063f851a440146102b3576100ea565b80636352211e146101b957806370a08231146101e957806395d89b4114610219576100ea565b80631249c58b116100c85780631249c58b1461015957806323b872dd1461016357806332cb6b0c1461017f57806355f804b31461019d576100ea565b806306fdde03146100ef578063081812fc1461010d578063095ea7b31461013d575b600080fd5b6100f76102d1565b60405161010491906114d0565b60405180910390f35b6101276004803603810190610122919061153c565b610363565b60405161013491906115aa565b60405180910390f35b610157600480360381019061015291906115f1565b6103a9565b005b6101616104b3565b005b61017d60048036038101906101789190611631565b610608565b005b610187610661565b6040516101949190611693565b60405180910390f35b6101b760048036038101906101b291906117e3565b610666565b005b6101d360048036038101906101ce919061153c565b6106da565b6040516101e091906115aa565b60405180910390f35b61020360048036038101906101fe919061182c565b610761565b6040516102109190611693565b60405180910390f35b610221610819565b60405161022e91906114d0565b60405180910390f35b610251600480360381019061024c9190611891565b6108ab565b005b61026d6004803603810190610268919061153c565b6108ba565b60405161027a91906114d0565b60405180910390f35b61029d600480360381019061029891906118d1565b610922565b6040516102aa9190611920565b60405180910390f35b6102bb6109b6565b6040516102c891906115aa565b60405180910390f35b6060600580546102e09061196a565b80601f016020809104026020016040519081016040528092919081815260200182805461030c9061196a565b80156103595780601f1061032e57610100808354040283529160200191610359565b820191906000526020600020905b81548152906001019060200180831161033c57829003601f168201915b5050505050905090565b600061036e826109dc565b6002600083815260200190815260200160002060009054906101000a900473ffffffffffffffffffffffffffffffffffffffff169050919050565b60006103b4826106da565b90508073ffffffffffffffffffffffffffffffffffffffff168373ffffffffffffffffffffffffffffffffffffffff161415610425576040517f08c379a000000000000000000000000000000000000000000000000000000000815260040161041c90611a0e565b60405180910390fd5b8073ffffffffffffffffffffffffffffffffffffffff163373ffffffffffffffffffffffffffffffffffffffff16148061046557506104648133610922565b5b6104a4576040517f08c379a000000000000000000000000000000000000000000000000000000000815260040161049b90611aa0565b60405180910390fd5b6104ae8383610a27565b505050565b6000600960009054906101000a900473ffffffffffffffffffffffffffffffffffffffff1673ffffffffffffffffffffffffffffffffffffffff166370a08231336040518263ffffffff1660e01b815260040161051091906115aa565b60206040518083038186803b15801561052857600080fd5b505afa15801561053c573d6000803e3d6000fd5b505050506040513d601f19601f820116820180604052508101906105609190611ad5565b116105a0576040517f08c379a000000000000000000000000000000000000000000000000000000000815260040161059790611b74565b60405180910390fd5b60006105ac6004610ae0565b9050600581106105f1576040517f08c379a00000000000000000000000000000000000000000000000000000000081526004016105e890611be0565b60405180910390fd5b6105fb3382610aee565b6106056004610ca5565b50565b6106123382610cbb565b610651576040517f08c379a000000000000000000000000000000000000000000000000000000000815260040161064890611c72565b60405180910390fd5b61065c838383610d50565b505050565b600581565b600860009054906101000a900473ffffffffffffffffffffffffffffffffffffffff1673ffffffffffffffffffffffffffffffffffffffff163373ffffffffffffffffffffffffffffffffffffffff16146106c057600080fd5b80600790805190602001906106d6929190611394565b5050565b6000806106e683610fb7565b9050600073ffffffffffffffffffffffffffffffffffffffff168173ffffffffffffffffffffffffffffffffffffffff161415610758576040517f08c379a000000000000000000000000000000000000000000000000000000000815260040161074f90611cde565b60405180910390fd5b80915050919050565b60008073ffffffffffffffffffffffffffffffffffffffff168273ffffffffffffffffffffffffffffffffffffffff1614156107d2576040517f08c379a00000000000000000000000000000000000000000000000000000000081526004016107c990611d70565b60405180910390fd5b600160008373ffffffffffffffffffffffffffffffffffffffff1673ffffffffffffffffffffffffffffffffffffffff168152602001908152602001600020549050919050565b6060600680546108289061196a565b80601f01602080910402602001604051908101604052809291908181526020018280546108549061196a565b80156108a15780601f10610876576101008083540402835291602001916108a1565b820191906000526020600020905b81548152906001019060200180831161088457829003601f168201915b5050505050905090565b6108b6338383610ff3565b5050565b60606108c5826109dc565b60006108cf611160565b905060008151116108ef576040518060200160405280600081525061091a565b806108f9846111f2565b60405160200161090a929190611dcc565b6040516020818303038152906040525b915050919050565b6000600360008473ffffffffffffffffffffffffffffffffffffffff1673ffffffffffffffffffffffffffffffffffffffff16815260200190815260200160002060008373ffffffffffffffffffffffffffffffffffffffff1673ffffffffffffffffffffffffffffffffffffffff16815260200190815260200160002060009054906101000a900460ff16905092915050565b600860009054906101000a900473ffffffffffffffffffffffffffffffffffffffff1681565b6109e581611353565b610a24576040517f08c379a0000000000000000000000000000000000000000000000000000000008152600401610a1b90611cde565b60405180910390fd5b50565b816002600083815260200190815260200160002060006101000a81548173ffffffffffffffffffffffffffffffffffffffff021916908373ffffffffffffffffffffffffffffffffffffffff160217905550808273ffffffffffffffffffffffffffffffffffffffff16610a9a836106da565b73ffffffffffffffffffffffffffffffffffffffff167f8c5be1e5ebec7d5bd14f71427d1e84f3dd0314c0f7b2291e5b200ac8c7c3b92560405160405180910390a45050565b600081600001549050919050565b600073ffffffffffffffffffffffffffffffffffffffff168273ffffffffffffffffffffffffffffffffffffffff161415610b5e576040517f08c379a0000000000000000000000000000000000000000000000000000000008152600401610b5590611e3c565b60405180910390fd5b610b6781611353565b15610ba7576040517f08c379a0000000000000000000000000000000000000000000000000000000008152600401610b9e90611ea8565b60405180910390fd5b60018060008473ffffffffffffffffffffffffffffffffffffffff1673ffffffffffffffffffffffffffffffffffffffff168152602001908152602001600020600082825401925050819055508160008083815260200190815260200160002060006101000a81548173ffffffffffffffffffffffffffffffffffffffff021916908373ffffffffffffffffffffffffffffffffffffffff160217905550808273ffffffffffffffffffffffffffffffffffffffff16600073ffffffffffffffffffffffffffffffffffffffff167fddf252ad1be2c89b69c2b068fc378daa952ba7f163c4a11628f55a4df523b3ef60405160405180910390a45050565b6001816000016000828254019250508190555050565b600080610cc7836106da565b90508073ffffffffffffffffffffffffffffffffffffffff168473ffffffffffffffffffffffffffffffffffffffff161480610d095750610d088185610922565b5b80610d4757508373ffffffffffffffffffffffffffffffffffffffff16610d2f84610363565b73ffffffffffffffffffffffffffffffffffffffff16145b91505092915050565b8273ffffffffffffffffffffffffffffffffffffffff16610d70826106da565b73ffffffffffffffffffffffffffffffffffffffff1614610dc6576040517f08c379a0000000000000000000000000000000000000000000000000000000008152600401610dbd90611f3a565b60405180910390fd5b600073ffffffffffffffffffffffffffffffffffffffff168273ffffffffffffffffffffffffffffffffffffffff161415610e36576040517f08c379a0000000000000000000000000000000000000000000000000000000008152600401610e2d90611fcc565b60405180910390fd5b6002600082815260200190815260200160002060006101000a81549073ffffffffffffffffffffffffffffffffffffffff021916905560018060008573ffffffffffffffffffffffffffffffffffffffff1673ffffffffffffffffffffffffffffffffffffffff1681526020019081526020016000206000828254039250508190555060018060008473ffffffffffffffffffffffffffffffffffffffff1673ffffffffffffffffffffffffffffffffffffffff168152602001908152602001600020600082825401925050819055508160008083815260200190815260200160002060006101000a81548173ffffffffffffffffffffffffffffffffffffffff021916908373ffffffffffffffffffffffffffffffffffffffff160217905550808273ffffffffffffffffffffffffffffffffffffffff168473ffffffffffffffffffffffffffffffffffffffff167fddf252ad1be2c89b69c2b068fc378daa952ba7f163c4a11628f55a4df523b3ef60405160405180910390a4505050565b600080600083815260200190815260200160002060009054906101000a900473ffffffffffffffffffffffffffffffffffffffff169050919050565b8173ffffffffffffffffffffffffffffffffffffffff168373ffffffffffffffffffffffffffffffffffffffff161415611062576040517f08c379a000000000000000000000000000000000000000000000000000000000815260040161105990612038565b60405180910390fd5b80600360008573ffffffffffffffffffffffffffffffffffffffff1673ffffffffffffffffffffffffffffffffffffffff16815260200190815260200160002060008473ffffffffffffffffffffffffffffffffffffffff1673ffffffffffffffffffffffffffffffffffffffff16815260200190815260200160002060006101000a81548160ff0219169083151502179055508173ffffffffffffffffffffffffffffffffffffffff168373ffffffffffffffffffffffffffffffffffffffff167f17307eab39ab6107e8899845ad3d59bd9653f200f220920489ca2b5937696c31836040516111539190611920565b60405180910390a3505050565b60606007805461116f9061196a565b80601f016020809104026020016040519081016040528092919081815260200182805461119b9061196a565b80156111e85780601f106111bd576101008083540402835291602001916111e8565b820191906000526020600020905b8154815290600101906020018083116111cb57829003601f168201915b5050505050905090565b6060600082141561123a576040518060400160405280600181526020017f3000000000000000000000000000000000000000000000000000000000000000815250905061134e565b600082905060005b6000821461126c57808061125590612087565b915050600a8261126591906120ff565b9150611242565b60008167ffffffffffffffff811115611288576112876116b8565b5b6040519080825280601f01601f1916602001820160405280156112ba5781602001600182028036833780820191505090505b5090505b60008514611347576001826112d39190612130565b9150600a856112e29190612164565b60306112ee9190612195565b60f81b818381518110611304576113036121eb565b5b60200101907effffffffffffffffffffffffffffffffffffffffffffffffffffffffffffff1916908160001a905350600a8561134091906120ff565b94506112be565b8093505050505b919050565b60008073ffffffffffffffffffffffffffffffffffffffff1661137583610fb7565b73ffffffffffffffffffffffffffffffffffffffff1614159050919050565b8280546113a09061196a565b90600052602060002090601f0160209004810192826113c25760008555611409565b82601f106113db57805160ff1916838001178555611409565b82800160010185558215611409579182015b828111156114085782518255916020019190600101906113ed565b5b509050611416919061141a565b5090565b5b8082111561143357600081600090555060010161141b565b5090565b600081519050919050565b600082825260208201905092915050565b60005b83811015611471578082015181840152602081019050611456565b83811115611480576000848401525b50505050565b6000601f19601f8301169050919050565b60006114a282611437565b6114ac8185611442565b93506114bc818560208601611453565b6114c581611486565b840191505092915050565b600060208201905081810360008301526114ea8184611497565b905092915050565b6000604051905090565b600080fd5b600080fd5b6000819050919050565b61151981611506565b811461152457600080fd5b50565b60008135905061153681611510565b92915050565b600060208284031215611552576115516114fc565b5b600061156084828501611527565b91505092915050565b600073ffffffffffffffffffffffffffffffffffffffff82169050919050565b600061159482611569565b9050919050565b6115a481611589565b82525050565b60006020820190506115bf600083018461159b565b92915050565b6115ce81611589565b81146115d957600080fd5b50565b6000813590506115eb816115c5565b92915050565b60008060408385031215611608576116076114fc565b5b6000611616858286016115dc565b925050602061162785828601611527565b9150509250929050565b60008060006060848603121561164a576116496114fc565b5b6000611658868287016115dc565b9350506020611669868287016115dc565b925050604061167a86828701611527565b9150509250925092565b61168d81611506565b82525050565b60006020820190506116a86000830184611684565b92915050565b600080fd5b600080fd5b7f4e487b7100000000000000000000000000000000000000000000000000000000600052604160045260246000fd5b6116f082611486565b810181811067ffffffffffffffff8211171561170f5761170e6116b8565b5b80604052505050565b60006117226114f2565b905061172e82826116e7565b919050565b600067ffffffffffffffff82111561174e5761174d6116b8565b5b61175782611486565b9050602081019050919050565b82818337600083830152505050565b600061178661178184611733565b611718565b9050828152602081018484840111156117a2576117a16116b3565b5b6117ad848285611764565b509392505050565b600082601f8301126117ca576117c96116ae565b5b81356117da848260208601611773565b91505092915050565b6000602082840312156117f9576117f86114fc565b5b600082013567ffffffffffffffff81111561181757611816611501565b5b611823848285016117b5565b91505092915050565b600060208284031215611842576118416114fc565b5b6000611850848285016115dc565b91505092915050565b60008115159050919050565b61186e81611859565b811461187957600080fd5b50565b60008135905061188b81611865565b92915050565b600080604083850312156118a8576118a76114fc565b5b60006118b6858286016115dc565b92505060206118c78582860161187c565b9150509250929050565b600080604083850312156118e8576118e76114fc565b5b60006118f6858286016115dc565b9250506020611907858286016115dc565b9150509250929050565b61191a81611859565b82525050565b60006020820190506119356000830184611911565b92915050565b7f4e487b7100000000000000000000000000000000000000000000000000000000600052602260045260246000fd5b6000600282049050600182168061198257607f821691505b602082108114156119965761199561193b565b5b50919050565b7f4552433732313a20617070726f76616c20746f2063757272656e74206f776e6560008201527f7200000000000000000000000000000000000000000000000000000000000000602082015250565b60006119f8602183611442565b9150611a038261199c565b604082019050919050565b60006020820190508181036000830152611a27816119eb565b9050919050565b7f4552433732313a20617070726f76652063616c6c6572206973206e6f7420746f60008201527f6b656e206f776e6572206f7220617070726f76656420666f7220616c6c000000602082015250565b6000611a8a603d83611442565b9150611a9582611a2e565b604082019050919050565b60006020820190508181036000830152611ab981611a7d565b9050919050565b600081519050611acf81611510565b92915050565b600060208284031215611aeb57611aea6114fc565b5b6000611af984828501611ac0565b91505092915050565b7f596f75206e656564206174206c65617374206f6e652066616e20746f6b656e2060008201527f746f206d696e74206120506c6179657220436172640000000000000000000000602082015250565b6000611b5e603583611442565b9150611b6982611b02565b604082019050919050565b60006020820190508181036000830152611b8d81611b51565b9050919050565b7f416c6c20506c6179657243617264732068617665206265656e206d696e746564600082015250565b6000611bca602083611442565b9150611bd582611b94565b602082019050919050565b60006020820190508181036000830152611bf981611bbd565b9050919050565b7f4552433732313a2063616c6c6572206973206e6f7420746f6b656e206f776e6560008201527f72206f7220617070726f76656400000000000000000000000000000000000000602082015250565b6000611c5c602d83611442565b9150611c6782611c00565b604082019050919050565b60006020820190508181036000830152611c8b81611c4f565b9050919050565b7f4552433732313a20696e76616c696420746f6b656e2049440000000000000000600082015250565b6000611cc8601883611442565b9150611cd382611c92565b602082019050919050565b60006020820190508181036000830152611cf781611cbb565b9050919050565b7f4552433732313a2061646472657373207a65726f206973206e6f74206120766160008201527f6c6964206f776e65720000000000000000000000000000000000000000000000602082015250565b6000611d5a602983611442565b9150611d6582611cfe565b604082019050919050565b60006020820190508181036000830152611d8981611d4d565b9050919050565b600081905092915050565b6000611da682611437565b611db08185611d90565b9350611dc0818560208601611453565b80840191505092915050565b6000611dd88285611d9b565b9150611de48284611d9b565b91508190509392505050565b7f4552433732313a206d696e7420746f20746865207a65726f2061646472657373600082015250565b6000611e26602083611442565b9150611e3182611df0565b602082019050919050565b60006020820190508181036000830152611e5581611e19565b9050919050565b7f4552433732313a20746f6b656e20616c7265616479206d696e74656400000000600082015250565b6000611e92601c83611442565b9150611e9d82611e5c565b602082019050919050565b60006020820190508181036000830152611ec181611e85565b9050919050565b7f4552433732313a207472616e736665722066726f6d20696e636f72726563742060008201527f6f776e6572000000000000000000000000000000000000000000000000000000602082015250565b6000611f24602583611442565b9150611f2f82611ec8565b604082019050919050565b60006020820190508181036000830152611f5381611f17565b9050919050565b7f4552433732313a207472616e7366657220746f20746865207a65726f2061646460008201527f7265737300000000000000000000000000000000000000000000000000000000602082015250565b6000611fb6602483611442565b9150611fc182611f5a565b604082019050919050565b60006020820190508181036000830152611fe581611fa9565b9050919050565b7f4552433732313a20617070726f766520746f2063616c6c657200000000000000600082015250565b6000612022601983611442565b915061202d82611fec565b602082019050919050565b6000602082019050818103600083015261205181612015565b9050919050565b7f4e487b7100000000000000000000000000000000000000000000000000000000600052601160045260246000fd5b600061209282611506565b91507fffffffffffffffffffffffffffffffffffffffffffffffffffffffffffffffff8214156120c5576120c4612058565b5b600182019050919050565b7f4e487b7100000000000000000000000000000000000000000000000000000000600052601260045260246000fd5b600061210a82611506565b915061211583611506565b925082612125576121246120d0565b5b828204905092915050565b600061213b82611506565b915061214683611506565b92508282101561215957612158612058565b5b828203905092915050565b600061216f82611506565b915061217a83611506565b92508261218a576121896120d0565b5b828206905092915050565b60006121a082611506565b91506121ab83611506565b9250827fffffffffffffffffffffffffffffffffffffffffffffffffffffffffffffffff038211156121e0576121df612058565b5b828201905092915050565b7f4e487b7100000000000000000000000000000000000000000000000000000000600052603260045260246000fdfea2646970667358221220b09108d551fb454ee7844e3403b35712632d300862c7789b0d88e308a1fe652664736f6c63430008090033",
  "linkReferences": {},
  "deployedLinkReferences": {}
}